:100000000C9434000C943E000C943E000C943E0082
:100010000C943E000C943E000C943E000C943E0068
:100020000C943E000C943E000C943E000C943E0058
:100030000C943E000C943E000C943E000C943E0048
:100040000C943E000C943E000C943E000C943E0038
:100050000C943E000C943E000C943E000C943E0028
:100060000C943E000C943E0011241FBECFEFD4E050
:10007000DEBFCDBF0E94E9000C9434010C94000057
:1000800010927C0085E880937A00089580937C002C
:1000900084E18A95A895E9F780917A00806480933D
:1000A0007A0080917A0084FFFCCF80917A00806191
:1000B00080937A002091780030917900C9010895E9
:1000C000882311F4589A03C0813019F45898599A2A
:1000D0000CC0823011F4589A07C0833011F4589A3A
:1000E0000EC0843021F4589859985A9A0895853052
:1000F00019F4589A599804C0863021F45898599A9E
:100100005A980895873019F4589859985A9808952C
:10011000882311F4409A03C0813019F44098419A21
:100120000CC0823011F4409A07C0833011F4409A19
:100130000EC0843021F440984198429A0895853049
:1001400019F4409A419804C0863021F44098419AAD
:1001500042980895873019F440984198429808953C
:10016000882311F4439A03C0813019F44398449AC8
:100170000CC0823011F4439A07C0833011F4439AC3
:100180000EC0843021F443984498459A08958530F0
:1001900019F4439A449804C0863021F44398449A51
:1001A00045980895873019F44398449845980895E0
:1001B0000F931F9300E010E087E00E94460080FD4F
:1001C0000F5F1F5F1F3FC1F7802F87701F910F9137
:1001D0000895FF920F931F93CF93DF93589A599AE4
:1001E0005A9A409A419A429A439A449A459A509A06
:1001F000519A529A3D9A3C9A3B9A3A9A399A389A2D
:1002000010927C0085E880937A00FF2400E010E0E3
:10021000C0EAD0E0FF2041F40E94D800F82EF39409
:100220000E94D8000E946000002341F40E94D80080
:10023000082F0F5F0E94D8000E948800112341F40C
:100240000E94D800182F1F5F0E94D8000E94B000A3
:1002500084EF91E0FE013197A895E9F70197D1F776
:0C026000FA9401501150D6CFF894FFCF53
:00000001FF
